{
  "address": "0x3ab2894F610C2D205e8104cf719031F4ec2B9C64",
  "abi": [
    {
      "inputs": [
        {
          "internalType": "address",
          "name": "initialOwner",
          "type": "address"
        }
      ],
      "stateMutability": "nonpayable",
      "type": "constructor"
    },
    {
      "inputs": [
        {
          "internalType": "address",
          "name": "owner",
          "type": "address"
        }
      ],
      "name": "OwnableInvalidOwner",
      "type": "error"
    },
    {
      "inputs": [
        {
          "internalType": "address",
          "name": "account",
          "type": "address"
        }
      ],
      "name": "OwnableUnauthorizedAccount",
      "type": "error"
    },
    {
      "inputs": [],
      "name": "ReentrancyGuardReentrantCall",
      "type": "error"
    },
    {
      "anonymous": false,
      "inputs": [
        {
          "indexed": true,
          "internalType": "uint256",
          "name": "id",
          "type": "uint256"
        },
        {
          "indexed": false,
          "internalType": "string",
          "name": "name",
          "type": "string"
        }
      ],
      "name": "CandidateRegistered",
      "type": "event"
    },
    {
      "anonymous": false,
      "inputs": [
        {
          "indexed": true,
          "internalType": "address",
          "name": "user",
          "type": "address"
        }
      ],
      "name": "DecryptGranted",
      "type": "event"
    },
    {
      "anonymous": false,
      "inputs": [
        {
          "indexed": true,
          "internalType": "address",
          "name": "previousOwner",
          "type": "address"
        },
        {
          "indexed": true,
          "internalType": "address",
          "name": "newOwner",
          "type": "address"
        }
      ],
      "name": "OwnershipTransferred",
      "type": "event"
    },
    {
      "anonymous": false,
      "inputs": [
        {
          "indexed": true,
          "internalType": "address",
          "name": "voter",
          "type": "address"
        },
        {
          "indexed": true,
          "internalType": "uint256",
          "name": "candidateId",
          "type": "uint256"
        }
      ],
      "name": "Voted",
      "type": "event"
    },
    {
      "anonymous": false,
      "inputs": [
        {
          "indexed": false,
          "internalType": "uint256",
          "name": "timestamp",
          "type": "uint256"
        }
      ],
      "name": "VotingEnded",
      "type": "event"
    },
    {
      "inputs": [],
      "name": "authorizeViewer",
      "outputs": [],
      "stateMutability": "nonpayable",
      "type": "function"
    },
    {
      "inputs": [],
      "name": "endTime",
      "outputs": [
        {
          "internalType": "uint64",
          "name": "",
          "type": "uint64"
        }
      ],
      "stateMutability": "view",
      "type": "function"
    },
    {
      "inputs": [],
      "name": "endVoting",
      "outputs": [],
      "stateMutability": "nonpayable",
      "type": "function"
    },
    {
      "inputs": [],
      "name": "getAllCandidates",
      "outputs": [
        {
          "components": [
            {
              "internalType": "uint256",
              "name": "id",
              "type": "uint256"
            },
            {
              "internalType": "string",
              "name": "name",
              "type": "string"
            },
            {
              "internalType": "string",
              "name": "description",
              "type": "string"
            },
            {
              "internalType": "string",
              "name": "imageURI",
              "type": "string"
            },
            {
              "internalType": "euint32",
              "name": "voteCount",
              "type": "bytes32"
            }
          ],
          "internalType": "struct TalentRankVoting.Candidate[]",
          "name": "",
          "type": "tuple[]"
        }
      ],
      "stateMutability": "view",
      "type": "function"
    },
    {
      "inputs": [
        {
          "internalType": "uint256",
          "name": "id",
          "type": "uint256"
        }
      ],
      "name": "getCandidate",
      "outputs": [
        {
          "internalType": "uint256",
          "name": "candidateId",
          "type": "uint256"
        },
        {
          "internalType": "string",
          "name": "name",
          "type": "string"
        },
        {
          "internalType": "string",
          "name": "description",
          "type": "string"
        },
        {
          "internalType": "string",
          "name": "imageURI",
          "type": "string"
        },
        {
          "internalType": "euint32",
          "name": "voteCount",
          "type": "bytes32"
        }
      ],
      "stateMutability": "view",
      "type": "function"
    },
    {
      "inputs": [
        {
          "internalType": "uint256",
          "name": "id",
          "type": "uint256"
        }
      ],
      "name": "getCandidateCount",
      "outputs": [
        {
          "internalType": "euint32",
          "name": "",
          "type": "bytes32"
        }
      ],
      "stateMutability": "view",
      "type": "function"
    },
    {
      "inputs": [],
      "name": "getMyVoteEncrypted",
      "outputs": [
        {
          "internalType": "euint32",
          "name": "",
          "type": "bytes32"
        }
      ],
      "stateMutability": "view",
      "type": "function"
    },
    {
      "inputs": [],
      "name": "getTotalVotes",
      "outputs": [
        {
          "internalType": "euint32",
          "name": "",
          "type": "bytes32"
        }
      ],
      "stateMutability": "view",
      "type": "function"
    },
    {
      "inputs": [
        {
          "internalType": "address",
          "name": "user",
          "type": "address"
        }
      ],
      "name": "grantDecryptionTo",
      "outputs": [],
      "stateMutability": "nonpayable",
      "type": "function"
    },
    {
      "inputs": [
        {
          "internalType": "address",
          "name": "user",
          "type": "address"
        }
      ],
      "name": "hasVoted",
      "outputs": [
        {
          "internalType": "bool",
          "name": "",
          "type": "bool"
        }
      ],
      "stateMutability": "view",
      "type": "function"
    },
    {
      "inputs": [],
      "name": "owner",
      "outputs": [
        {
          "internalType": "address",
          "name": "",
          "type": "address"
        }
      ],
      "stateMutability": "view",
      "type": "function"
    },
    {
      "inputs": [],
      "name": "protocolId",
      "outputs": [
        {
          "internalType": "uint256",
          "name": "",
          "type": "uint256"
        }
      ],
      "stateMutability": "pure",
      "type": "function"
    },
    {
      "inputs": [
        {
          "internalType": "string",
          "name": "name",
          "type": "string"
        },
        {
          "internalType": "string",
          "name": "imageURI",
          "type": "string"
        },
        {
          "internalType": "string",
          "name": "description",
          "type": "string"
        }
      ],
      "name": "registerCandidate",
      "outputs": [],
      "stateMutability": "nonpayable",
      "type": "function"
    },
    {
      "inputs": [],
      "name": "renounceOwnership",
      "outputs": [],
      "stateMutability": "nonpayable",
      "type": "function"
    },
    {
      "inputs": [
        {
          "internalType": "uint64",
          "name": "startTimestamp",
          "type": "uint64"
        },
        {
          "internalType": "uint64",
          "name": "endTimestamp",
          "type": "uint64"
        }
      ],
      "name": "setVotingWindow",
      "outputs": [],
      "stateMutability": "nonpayable",
      "type": "function"
    },
    {
      "inputs": [],
      "name": "startTime",
      "outputs": [
        {
          "internalType": "uint64",
          "name": "",
          "type": "uint64"
        }
      ],
      "stateMutability": "view",
      "type": "function"
    },
    {
      "inputs": [
        {
          "internalType": "address",
          "name": "newOwner",
          "type": "address"
        }
      ],
      "name": "transferOwnership",
      "outputs": [],
      "stateMutability": "nonpayable",
      "type": "function"
    },
    {
      "inputs": [
        {
          "internalType": "uint256",
          "name": "candidateId",
          "type": "uint256"
        }
      ],
      "name": "vote",
      "outputs": [],
      "stateMutability": "nonpayable",
      "type": "function"
    },
    {
      "inputs": [],
      "name": "votingEnded",
      "outputs": [
        {
          "internalType": "bool",
          "name": "",
          "type": "bool"
        }
      ],
      "stateMutability": "view",
      "type": "function"
    }
  ],
  "transactionHash": "0x067117888ff90ab809fb49b53fed4bdbdfda3a6051be2dfa740c79fa952c8e96",
  "args": [
    "0x6F22effc352463030620703d22d5eD3A453849cA"
  ],
  "numDeployments": 1,
  "solcInputHash": "8b9d8979ecaa7e88f6d2c2932f0e849a",
  "bytecode": "0x608060405234801561000f575f5ffd5b506040516118eb3803806118eb83398101604081905261002e91610239565b806101a96100cd604080516080810182525f808252602082018190529181018290526060810191909152506040805160808101825273687820221192c5b662b25367f70076a37bc79b6c815273848b0066793bcc60346da1f49049357399b8d595602082015273a02cda4ca3a71d7c46997716f4283aa851c2881291810191909152731364cbbf2cdf5032c47d8226a6f6fbd2afcdacac606082015290565b80517f9e7b61f58c47dc699ac88507c4f5bb9f121c03808c5676a8078fe583e464970080546001600160a01b03199081166001600160a01b039384161790915560208301517f9e7b61f58c47dc699ac88507c4f5bb9f121c03808c5676a8078fe583e46497018054831691841691909117905560408301517f9e7b61f58c47dc699ac88507c4f5bb9f121c03808c5676a8078fe583e46497028054831691841691909117905560608301517f9e7b61f58c47dc699ac88507c4f5bb9f121c03808c5676a8078fe583e46497038054909216921691909117905550565b6001600160a01b0381166101d657604051631e4fbdf760e01b81525f600482015260240160405180910390fd5b6101df816101ea565b505060018055610266565b5f80546001600160a01b038381166001600160a01b0319831681178455604051919092169283917f8be0079c531659141344cd1fd0a4f28419497f9722a3daafe3b4186f6b6457e09190a35050565b5f60208284031215610249575f5ffd5b81516001600160a01b038116811461025f575f5ffd5b9392505050565b611678806102735f395ff3fe608060405234801561000f575f5ffd5b5060043610610149575f3560e01c8063715018a6116100c7578063b3c608941161007d578063c3403ddf11610063578063c3403ddf146102dc578063da1f12ab146102e4578063f2fde38b146102ec575f5ffd5b8063b3c60894146102c0578063c2d5c26b146102d4575f5ffd5b80638da5cb5b116100ad5780638da5cb5b1461028a5780639a0e7d66146102a45780639d5a0529146102ac575f5ffd5b8063715018a61461026e57806378e9792514610276575f5ffd5b80632e6997fe1161011c57806335b8e8201161010257806335b8e8201461022457806335c3c876146102485780634e1047501461025b575f5ffd5b80632e6997fe146101d65780633197cbb6146101eb575f5ffd5b80630121b93f1461014d57806309eef43e1461016257806326f6a2aa146101a2578063297925fd146101c3575b5f5ffd5b61016061015b3660046111d0565b6102ff565b005b61018d6101703660046111e7565b6001600160a01b03165f9081526004602052604090205460ff1690565b60405190151581526020015b60405180910390f35b6101b56101b03660046111d0565b6105a6565b604051908152602001610199565b6101606101d13660046111e7565b610613565b6101de6106f6565b604051610199919061123b565b60025461020b9068010000000000000000900467ffffffffffffffff1681565b60405167ffffffffffffffff9091168152602001610199565b6102376102323660046111d0565b610915565b6040516101999594939291906112f4565b6101606102563660046113e4565b610b49565b61016061026936600461148e565b610c85565b610160610d30565b60025461020b9067ffffffffffffffff1681565b5f546040516001600160a01b039091168152602001610199565b6005546101b5565b60025461018d90600160801b900460ff1681565b335f908152600660205260409020546101b5565b610160610d43565b610160610d91565b6127116101b5565b6101606102fa3660046111e7565b610e4f565b610307610e89565b600254600160801b900460ff16156103665760405162461bcd60e51b815260206004820152600c60248201527f566f74696e6720656e646564000000000000000000000000000000000000000060448201526064015b60405180910390fd5b60025467ffffffffffffffff1615801590610398575060025468010000000000000000900467ffffffffffffffff1615155b1561041d5760025467ffffffffffffffff1642108015906103d1575060025468010000000000000000900467ffffffffffffffff164211155b61041d5760405162461bcd60e51b815260206004820152600d60248201527f4f7574206f662077696e646f7700000000000000000000000000000000000000604482015260640161035d565b335f9081526004602052604090205460ff161561047c5760405162461bcd60e51b815260206004820152600d60248201527f416c726561647920766f74656400000000000000000000000000000000000000604482015260640161035d565b60035481106104bd5760405162461bcd60e51b815260206004820152600d60248201526c4261642063616e64696461746560981b604482015260640161035d565b5f600382815481106104d1576104d16114bf565b905f5260205f20906005020190506104ee81600401546001610eb3565b600482018190556104fe90610ede565b5061050d816004015433610eed565b5061051b6005546001610eb3565b600581905561052990610ede565b50335f908152600460205260408120805460ff1916600117905561054c83610eff565b335f81815260066020526040902082905590915061056b908290610eed565b50604051839033907f4d99b957a2bc29a30ebd96a7be8e68fe50a3c701db28a91436490b7d53870ca4905f90a350506105a360018055565b50565b6003545f9082106105e95760405162461bcd60e51b815260206004820152600d60248201526c4261642063616e64696461746560981b604482015260640161035d565b600382815481106105fc576105fc6114bf565b905f5260205f209060050201600401549050919050565b61061b610f17565b6001600160a01b0381166106715760405162461bcd60e51b815260206004820152600860248201527f6261642075736572000000000000000000000000000000000000000000000000604482015260640161035d565b5f5b6003548110156106b2576106a960038281548110610693576106936114bf565b905f5260205f2090600502016004015483610eed565b50600101610673565b506106bf60055482610eed565b506040516001600160a01b038216907f4358b013b5b1731a9a90144f3f13df6ba2e8904533503355276bfca719407c1b905f90a250565b60606003805480602002602001604051908101604052809291908181526020015f905b8282101561090c578382905f5260205f2090600502016040518060a00160405290815f8201548152602001600182018054610753906114d3565b80601f016020809104026020016040519081016040528092919081815260200182805461077f906114d3565b80156107ca5780601f106107a1576101008083540402835291602001916107ca565b820191905f5260205f20905b8154815290600101906020018083116107ad57829003601f168201915b505050505081526020016002820180546107e3906114d3565b80601f016020809104026020016040519081016040528092919081815260200182805461080f906114d3565b801561085a5780601f106108315761010080835404028352916020019161085a565b820191905f5260205f20905b81548152906001019060200180831161083d57829003601f168201915b50505050508152602001600382018054610873906114d3565b80601f016020809104026020016040519081016040528092919081815260200182805461089f906114d3565b80156108ea5780601f106108c1576101008083540402835291602001916108ea565b820191905f5260205f20905b8154815290600101906020018083116108cd57829003601f168201915b5050505050815260200160048201548152505081526020019060010190610719565b50505050905090565b5f60608060605f60038054905086106109605760405162461bcd60e51b815260206004820152600d60248201526c4261642063616e64696461746560981b604482015260640161035d565b5f60038781548110610974576109746114bf565b905f5260205f2090600502019050805f015481600101826002018360030184600401548380546109a3906114d3565b80601f01602080910402602001604051908101604052809291908181526020018280546109cf906114d3565b8015610a1a5780601f106109f157610100808354040283529160200191610a1a565b820191905f5260205f20905b8154815290600101906020018083116109fd57829003601f168201915b50505050509350828054610a2d906114d3565b80601f0160208091040260200160405190810160405280929190818152602001828054610a59906114d3565b8015610aa45780601f10610a7b57610100808354040283529160200191610aa4565b820191905f5260205f20905b815481529060010190602001808311610a8757829003601f168201915b50505050509250818054610ab7906114d3565b80601f0160208091040260200160405190810160405280929190818152602001828054610ae3906114d3565b8015610b2e5780601f10610b0557610100808354040283529160200191610b2e565b820191905f5260205f20905b815481529060010190602001808311610b1157829003601f168201915b50505050509150955095509550955095505091939590929450565b610b51610f17565b5f6003805490509050610b8a6040518060a001604052805f81526020016060815260200160608152602001606081526020015f81525090565b818152602081018581526040820184905260608201859052600380546001810182555f91909152825160059091027fc2575a0e9e593c00f959f8c92f12db2869c3395a3b0502d05e2516446f71f85b8101918255915183927fc2575a0e9e593c00f959f8c92f12db2869c3395a3b0502d05e2516446f71f85c0190610c0f9082611557565b5060408201516002820190610c249082611557565b5060608201516003820190610c399082611557565b50608082015181600401555050817f96b6e1d9af8279de0ae4d01600bcae708bdb292c4a8f8f150aff92f5caf56a4286604051610c769190611612565b60405180910390a25050505050565b610c8d610f17565b8167ffffffffffffffff168167ffffffffffffffff1611610cf05760405162461bcd60e51b815260206004820152600e60248201527f496e76616c69642077696e646f77000000000000000000000000000000000000604482015260640161035d565b6002805467ffffffffffffffff92831668010000000000000000026fffffffffffffffffffffffffffffffff199091169290931691909117919091179055565b610d38610f17565b610d415f610f43565b565b5f5b600354811015610d8457610d7b60038281548110610d6557610d656114bf565b905f5260205f2090600502016004015433610eed565b50600101610d45565b506105a360055433610eed565b610d99610f17565b600254600160801b900460ff1615610df35760405162461bcd60e51b815260206004820152600d60248201527f416c726561647920656e64656400000000000000000000000000000000000000604482015260640161035d565b6002805470ff000000000000000000000000000000001916600160801b1790556040517f81eb7415440ff8e6c8e92606fd3b0e5e6a5c99ea90cdb63b41aec54e897312b390610e459042815260200190565b60405180910390a1565b610e57610f17565b6001600160a01b038116610e8057604051631e4fbdf760e01b81525f600482015260240161035d565b6105a381610f43565b600260015403610eac57604051633ee5aeb560e01b815260040160405180910390fd5b6002600155565b5f82610ec557610ec25f610eff565b92505b610ed78363ffffffff84166001610faa565b9392505050565b5f610ee9823061108a565b5090565b5f610ef8838361108a565b5090919050565b5f610f118263ffffffff166004611113565b92915050565b5f546001600160a01b03163314610d415760405163118cdaa760e01b815233600482015260240161035d565b5f80546001600160a01b038381167fffffffffffffffffffffffff0000000000000000000000000000000000000000831681178455604051919092169283917f8be0079c531659141344cd1fd0a4f28419497f9722a3daafe3b4186f6b6457e09190a35050565b5f5f8215610fbd5750600160f81b610fc0565b505f5b5f7f9e7b61f58c47dc699ac88507c4f5bb9f121c03808c5676a8078fe583e4649700600181015460405163022f65e760e31b815260048101899052602481018890527fff00000000000000000000000000000000000000000000000000000000000000851660448201529192506001600160a01b03169063117b2f38906064016020604051808303815f875af115801561105c573d5f5f3e3d5ffd5b505050506040513d601f19601f820116820180604052508101906110809190611624565b9695505050505050565b5f7f9e7b61f58c47dc699ac88507c4f5bb9f121c03808c5676a8078fe583e46497008054604051635ca4b5b160e11b8152600481018690526001600160a01b03858116602483015292935091169063b9496b62906044015f604051808303815f87803b1580156110f8575f5ffd5b505af115801561110a573d5f5f3e3d5ffd5b50505050505050565b7f9e7b61f58c47dc699ac88507c4f5bb9f121c03808c5676a8078fe583e464970154604051639cd07acb60e01b81525f917f9e7b61f58c47dc699ac88507c4f5bb9f121c03808c5676a8078fe583e4649700916001600160a01b0390911690639cd07acb90611188908790879060040161163b565b6020604051808303815f875af11580156111a4573d5f5f3e3d5ffd5b505050506040513d601f19601f820116820180604052508101906111c89190611624565b949350505050565b5f602082840312156111e0575f5ffd5b5035919050565b5f602082840312156111f7575f5ffd5b81356001600160a01b0381168114610ed7575f5ffd5b5f81518084528060208401602086015e5f602082860101526020601f19601f83011685010191505092915050565b5f602082016020835280845180835260408501915060408160051b8601019250602086015f5b828110156112e857603f19878603018452815180518652602081015160a0602088015261129160a088018261120d565b9050604082015187820360408901526112aa828261120d565b915050606082015187820360608901526112c4828261120d565b60809384015198909301979097525094506020938401939190910190600101611261565b50929695505050505050565b85815260a060208201525f61130c60a083018761120d565b828103604084015261131e818761120d565b90508281036060840152611332818661120d565b9150508260808301529695505050505050565b634e487b7160e01b5f52604160045260245ffd5b5f82601f830112611368575f5ffd5b813567ffffffffffffffff81111561138257611382611345565b604051601f8201601f19908116603f0116810167ffffffffffffffff811182821017156113b1576113b1611345565b6040528181528382016020018510156113c8575f5ffd5b816020850160208301375f918101602001919091529392505050565b5f5f5f606084860312156113f6575f5ffd5b833567ffffffffffffffff81111561140c575f5ffd5b61141886828701611359565b935050602084013567ffffffffffffffff811115611434575f5ffd5b61144086828701611359565b925050604084013567ffffffffffffffff81111561145c575f5ffd5b61146886828701611359565b9150509250925092565b803567ffffffffffffffff81168114611489575f5ffd5b919050565b5f5f6040838503121561149f575f5ffd5b6114a883611472565b91506114b660208401611472565b90509250929050565b634e487b7160e01b5f52603260045260245ffd5b600181811c908216806114e757607f821691505b60208210810361150557634e487b7160e01b5f52602260045260245ffd5b50919050565b601f82111561155257805f5260205f20601f840160051c810160208510156115305750805b601f840160051c820191505b8181101561154f575f815560010161153c565b50505b505050565b815167ffffffffffffffff81111561157157611571611345565b6115858161157f84546114d3565b8461150b565b6020601f8211600181146115b7575f83156115a05750848201515b5f19600385901b1c1916600184901b17845561154f565b5f84815260208120601f198516915b828110156115e657878501518255602094850194600190920191016115c6565b508482101561160357868401515f19600387901b60f8161c191681555b50505050600190811b01905550565b602081525f610ed7602083018461120d565b5f60208284031215611634575f5ffd5b5051919050565b828152604081016054831061165e57634e487b7160e01b5f52602160045260245ffd5b826020830152939250505056fea164736f6c634300081b000a",
  "devdoc": {
    "errors": {
      "OwnableInvalidOwner(address)": [
        {
          "details": "The owner is not a valid owner account. (eg. `address(0)`)"
        }
      ],
      "OwnableUnauthorizedAccount(address)": [
        {
          "details": "The caller account is not authorized to perform an operation."
        }
      ],
      "ReentrancyGuardReentrantCall()": [
        {
          "details": "Unauthorized reentrant call."
        }
      ]
    },
    "kind": "dev",
    "methods": {
      "owner()": {
        "details": "Returns the address of the current owner."
      },
      "renounceOwnership()": {
        "details": "Leaves the contract without owner. It will not be possible to call `onlyOwner` functions. Can only be called by the current owner. NOTE: Renouncing ownership will leave the contract without an owner, thereby disabling any functionality that is only available to the owner."
      },
      "transferOwnership(address)": {
        "details": "Transfers ownership of the contract to a new account (`newOwner`). Can only be called by the current owner."
      }
    },
    "version": 1
  },
  "userdoc": {
    "kind": "user",
    "methods": {},
    "version": 1
  },
  "storageLayout": {
    "storage": [
      {
        "astId": 39029,
        "contract": "contracts/TalentRankVoting.sol:TalentRankVoting",
        "label": "_owner",
        "offset": 0,
        "slot": "0",
        "type": "t_address"
      },
      {
        "astId": 39209,
        "contract": "contracts/TalentRankVoting.sol:TalentRankVoting",
        "label": "_status",
        "offset": 0,
        "slot": "1",
        "type": "t_uint256"
      },
      {
        "astId": 39323,
        "contract": "contracts/TalentRankVoting.sol:TalentRankVoting",
        "label": "startTime",
        "offset": 0,
        "slot": "2",
        "type": "t_uint64"
      },
      {
        "astId": 39325,
        "contract": "contracts/TalentRankVoting.sol:TalentRankVoting",
        "label": "endTime",
        "offset": 8,
        "slot": "2",
        "type": "t_uint64"
      },
      {
        "astId": 39327,
        "contract": "contracts/TalentRankVoting.sol:TalentRankVoting",
        "label": "votingEnded",
        "offset": 16,
        "slot": "2",
        "type": "t_bool"
      },
      {
        "astId": 39331,
        "contract": "contracts/TalentRankVoting.sol:TalentRankVoting",
        "label": "_candidates",
        "offset": 0,
        "slot": "3",
        "type": "t_array(t_struct(Candidate)39301_storage)dyn_storage"
      },
      {
        "astId": 39335,
        "contract": "contracts/TalentRankVoting.sol:TalentRankVoting",
        "label": "_hasVoted",
        "offset": 0,
        "slot": "4",
        "type": "t_mapping(t_address,t_bool)"
      },
      {
        "astId": 39338,
        "contract": "contracts/TalentRankVoting.sol:TalentRankVoting",
        "label": "_totalVotes",
        "offset": 0,
        "slot": "5",
        "type": "t_userDefinedValueType(euint32)39807"
      },
      {
        "astId": 39343,
        "contract": "contracts/TalentRankVoting.sol:TalentRankVoting",
        "label": "_userVoteEncrypted",
        "offset": 0,
        "slot": "6",
        "type": "t_mapping(t_address,t_userDefinedValueType(euint32)39807)"
      }
    ],
    "types": {
      "t_address": {
        "encoding": "inplace",
        "label": "address",
        "numberOfBytes": "20"
      },
      "t_array(t_struct(Candidate)39301_storage)dyn_storage": {
        "base": "t_struct(Candidate)39301_storage",
        "encoding": "dynamic_array",
        "label": "struct TalentRankVoting.Candidate[]",
        "numberOfBytes": "32"
      },
      "t_bool": {
        "encoding": "inplace",
        "label": "bool",
        "numberOfBytes": "1"
      },
      "t_mapping(t_address,t_bool)": {
        "encoding": "mapping",
        "key": "t_address",
        "label": "mapping(address => bool)",
        "numberOfBytes": "32",
        "value": "t_bool"
      },
      "t_mapping(t_address,t_userDefinedValueType(euint32)39807)": {
        "encoding": "mapping",
        "key": "t_address",
        "label": "mapping(address => euint32)",
        "numberOfBytes": "32",
        "value": "t_userDefinedValueType(euint32)39807"
      },
      "t_string_storage": {
        "encoding": "bytes",
        "label": "string",
        "numberOfBytes": "32"
      },
      "t_struct(Candidate)39301_storage": {
        "encoding": "inplace",
        "label": "struct TalentRankVoting.Candidate",
        "members": [
          {
            "astId": 39291,
            "contract": "contracts/TalentRankVoting.sol:TalentRankVoting",
            "label": "id",
            "offset": 0,
            "slot": "0",
            "type": "t_uint256"
          },
          {
            "astId": 39293,
            "contract": "contracts/TalentRankVoting.sol:TalentRankVoting",
            "label": "name",
            "offset": 0,
            "slot": "1",
            "type": "t_string_storage"
          },
          {
            "astId": 39295,
            "contract": "contracts/TalentRankVoting.sol:TalentRankVoting",
            "label": "description",
            "offset": 0,
            "slot": "2",
            "type": "t_string_storage"
          },
          {
            "astId": 39297,
            "contract": "contracts/TalentRankVoting.sol:TalentRankVoting",
            "label": "imageURI",
            "offset": 0,
            "slot": "3",
            "type": "t_string_storage"
          },
          {
            "astId": 39300,
            "contract": "contracts/TalentRankVoting.sol:TalentRankVoting",
            "label": "voteCount",
            "offset": 0,
            "slot": "4",
            "type": "t_userDefinedValueType(euint32)39807"
          }
        ],
        "numberOfBytes": "160"
      },
      "t_uint256": {
        "encoding": "inplace",
        "label": "uint256",
        "numberOfBytes": "32"
      },
      "t_uint64": {
        "encoding": "inplace",
        "label": "uint64",
        "numberOfBytes": "8"
      },
      "t_userDefinedValueType(euint32)39807": {
        "encoding": "inplace",
        "label": "euint32",
        "numberOfBytes": "32"
      }
    }
  }
}